:020000040000FA
:0400000080312B28F8
:100008007E1480310B1F09280A2829284E01191E41
:100018000E280F281A280F1E122813281A28410103
:100028005F088A005E080A0080312928991E1D2869
:100038001E2829288F1E21282228292841015D08E9
:100048008A005C080A00803129287E100900803166
:100058002D282B30840084308500C630860000307F
:100068008700103084316C248031F901FA01FB01DA
:10007800A03084000030850014308431722480312F
:100088002030840001308500403084317224803172
:10009800A0308400013085004830843172248031DA
:1000A8007E104001803158284A3086000030870091
:1000B80024304001A20000301E00A20B6028263028
:1000C8008600003087002430A20000301E00A20BFA
:1000D8006A28C630860000308700B43084000030BB
:1000E80085001030A20016001A00A20B7728843170
:1000F8003B2480317330F2000230F30084317E24D7
:1001080080318B170B1740018D1E8B288C28942863
:100118004101BA01BB010130B8000030B9009B2889
:100128004101B801B9010130BA000030BB004001FB
:100138000D1F9F28A028A8284101BE01BF0101303A
:10014800BC000030BD00AF284101BC01BD01013039
:10015800BE000030BF0040010D1CB328B428BC28E5
:100168004101C201C3010130C0000030C100C328F1
:100178004101C001C1010130C2000030C30040018B
:100188008D1CC728C828D0284101C601C7010130E5
:10019800C4000030C500D7284101C401C5010130A1
:1001A800C6000030C70040018D1FDB28DC28E4288A
:1001B8004101B601B7010130B4000030B500EB28A9
:1001C8004101B401B5010130B6000030B70000307C
:1001D80084314B2480317308F7007208F6004C30E4
:1001E8008331B1238031013084314B24803173084D
:1001F800F7007208F6004E308331B12380310430A5
:1002080084314B2480317308F7007208F6005030AF
:100218008331B1238031053084314B248031730818
:10022800F7007208F60052308331B123803107306D
:1002380084314B2480317308F7007208F60054307B
:100248008331B1238031063084314B2480317308E7
:10025800F7007208F60056308331B1238031103030
:1002680084314B2480317308F7007208F600583047
:100278008331B1238031113084314B2480317308AC
:10028800F7007208F6005A308331B12380311230FA
:1002980084314B2480317308F7007208F6005C3013
:1002A8008331B1238031133084314B24803173087A
:1002B800F7007208F6005E308331B12380311430C4
:1002C80084314B2480317308F7007208F6006030DF
:1002D8008331B12380310B3084314B248031730852
:1002E800F7007208F60062308331B12380310C3098
:1002F80084314B2480317308F7007208F6006430AB
:100308008331B123803140010D0E890C0139090771
:10031800043EB43E86008701403FF600413FF700A7
:1003280066308331B123803140010D0E890C890C70
:1003380001390907083EB43E86008701403FF600B0
:10034800413FF70068308331B123803140010D0807
:10035800013909070C3EB43E86008701403FF6008C
:10036800413FF7006A308331B123803140010D0CE1
:1003780001390907103EB43E86008701403FF60068
:10038800413FF7006C308331B12380310A3084312A
:100398004B2480317308F7007208F6006E30833101
:1003A800B123803140010D0D0D0D01390907B43E0F
:1003B80086008701403FF600413FF7004A3083310D
:1003C800B1238031410130080319EB29EC29EB28CE
:1003D800B001400118174101C401C50144354A3E26
:1003E80086008701403F4001A200413FA300410130
:1003F8004435263E86008701403F4001A400413F26
:10040800A50023082506031D0B2A22082406031924
:100418000E2A0F2A352A410144354A3E86008701B3
:10042800403F4001A200413FA3004101450840016F
:10043800A500410144084001A4000A30A435A50DD7
:10044800890B222A22082404EE0023082504EF0041
:100458006E0883315C23803140016F0883315C234F
:100468008031410144354A3E860087014435263EA5
:1004780084008501403F803F413F813F44354A3EEB
:10048800860087010030C03FC13F0130C4070030FB
:10049800C53D00304502123003194402031C552A99
:1004A800562AF229843196248031003A03195D2AAC
:1004B8005E2A562A42011E147F3083315C23803124
:1004C800843196248031003A03196B2A6C2A642AF5
:1004D80042011E1040011813EB2880312B287A089E
:1004E800A03E86008701810142011D1D7C2A7D2ACC
:1004F800882A7A08A03E86008701811441015B089A
:100508008A005A080A00823142019D1C8C2A8D2AD1
:10051800982A7A08A03E86008701011541015908EA
:100528008A0058080A0082317A08A03E86008701AE
:1005380001080319A02AA12AA82A410157088A00FC
:1005480056080A008231AB2A8331F823823183317D
:1005580087238231313A031DB22AB32AB62A4101D0
:10056800B001B00A08004E019912F630F2000230CC
:10057800F30084317E2482314E011912D530F20005
:100588000330F300843178248231083042019F001F
:10059800D8309D0064309E0003309B009C01A2303F
:1005A800F2000430F30084318A2482319A30F20058
:1005B8000430F3008431842482319E30F200043008
:1005C800F3008431902482314101B101FB01B30170
:1005D8004030F4007408E000FA01F901B2014E015C
:1005E800991608007A08A03E860087018101420119
:1005F8001D1DFF2A002B0B2B7A08A03E86008701C1
:10060800811441015B088A005A080A0083314201BB
:100618009D1C0F2B102B1B2B7A08A03E86008701F0
:100628000115410159088A0058080A0083317A08DF
:10063800A03E8600870101080319232B242B2B2BAE
:10064800410157088A0056080A0083312E2B83314E
:10065800F823823108004001960197019801FF3084
:100668009100FF3092009F3093007F307E01CE00D2
:100678001C30C300FF30B800E501E730C400B90101
:10068800CF01BA01C501D001FF30BB00FF30C60061
:10069800FF30D100FF30BC00FF30C700FF30D20070
:1006A800E80117307D01CB0010307E01A50008005D
:1006B800F300410160080319622B632B5D2B4E0187
:1006C800191A672B682B6C2B730842019A00842B2C
:1006D80019127308F2007B08203E8600013087005B
:1006E800720881000130F2007208FB0740307B027B
:1006F800031C7F2B802B812BFB0101304101E00281
:100708004E01191608004101320803198C2B8D2B54
:10071800872B7908A03E860087010108F000700841
:10072800B1007908A83E860087010108F00070082A
:10073800F1000130F0007008F90708307902031C55
:10074800A62BA72BA82BF9014E01991201304101C4
:10075800B2024E01991671080800F8007808860060
:100768008701403F4001A000413FA10077082102D6
:10077800031DC02B760820020318C32BC42BD42BCF
:1007880000307702043003197602031CCC2BCD2BE2
:10079800D42B7808860087017608C03F7708C13FC8
:1007A80008004030410160020318DB2BDC2BF52BDD
:1007B8003308203E860001308700010842019A0074
:1007C8000130F00070084101B30740303302031CC8
:1007D800EE2BEF2BF02BB3010130F0007008E0078F
:1007E800F72B4E011912080042011908F0007A0887
:1007F800A83E86008701700881000130F00070086B
:10080800FA0708307A02031C0A2C0B2C0C2CFA016C
:100818000130F00070084101B207080042018E0162
:100828008F0190019101920193018D0141019E0177
:100838009B019C01940195019601970112309A0041
:1008480099019801843093000A309D000800FF3414
:10085800033400340034FF34033400340034FF34EC
:10086800033400340034FF3403340034003484315A
:100878006424843183312F23843184315B2484318F
:100888008431122484318231B72284310800F50082
:10089800750841019E009317131313141318552C50
:1008A800562C522C0D08F3000C08F200080060309A
:1008B80051018D008F0191010130930092010800D0
:1008C8004F0196019701980199019A019B0108002F
:1008D800FE0012001E00FE0B6D2C00346400800127
:1008E8000131890B732C003473084101DF00720851
:1008F800DE00080073084101DD007208DC00080012
:1009080073084101D9007208D80008007308410132
:10091800DB007208DA00080073084101D70072088A
:10092800D600080042011E0C0139080042011D12C0
:0E0938001D1608008331F823843108000800E2
:020000040001F9
:0A000E00EC3FFF3F9F3FFF3FFF3F25
:00000001FF
