:020000040000FA
:0400000080312B28F8
:100008007E1480310B1F09280A2829284E01191E41
:100018000E280F281A280F1E122813281A28400104
:1000280063088A0062080A0080312928991E1D2861
:100038001E2829288F1E21282228292840016108E6
:100048008A0060080A00803129287E100900803162
:100058002D28F901FA01FB012030840000308500C9
:100068003A308331D223803120308400013085003A
:1000780040308331D2238031A030840001308500A4
:1000880026308331D22380317E10400180314C28C4
:10009800C63086000030870026304001E700003077
:1000A8001E00E70B5428A030860000308700263059
:1000B800E70000301E00E70B5E288331A123803162
:1000C800EA30F2000130F3008331DE2380318B17F0
:1000D8000B1700308331B12380317308F7007208A1
:1000E800F600C83083312723803101308331B123B2
:1000F80080317308F7007208F600CA30833127236D
:10010800803104308331B12380317308F7007208DD
:10011800F600CC3083312723803105308331B12379
:1001280080317308F7007208F600CE308331272338
:10013800803107308331B12380317308F7007208AA
:10014800F600D03083312723803106308331B12344
:1001580080317308F7007208F600D2308331272304
:10016800803110308331B12380317308F700720871
:10017800F600D43083312723803111308331B12305
:1001880080317308F7007208F600D63083312723D0
:10019800803112308331B12380317308F70072083F
:1001A800F600D83083312723803113308331B123CF
:1001B80080317308F7007208F600DA30833127239C
:1001C800803114308331B12380317308F70072080D
:1001D800F600DC3083312723803108308331B123A6
:1001E80080317308F7007208F600DE308331272368
:1001F800803109308331B12380317308F7007208E8
:10020800F600E0308331272380310A308331B1236F
:1002180080317308F7007208F600E2308331272333
:1002280080310B308331B12380317308F7007208B5
:10023800F600E4308331272380310C308331B12339
:1002480080317308F7007208F600E63083312723FF
:1002580080310D308331B12380317308F700720883
:10026800F600E8308331272380310E308331B12303
:1002780080317308F7007208F600EA3083312723CB
:1002880080310F308331B12380317308F700720851
:10029800F600EC30833127238031400156080319DA
:1002A800562957296D28D60118174101EE01EF018B
:1002B8006E35C63E860087011600010403196529BC
:1002C8006629AC296E35C63E86008701403F40014D
:1002D800E700413FE80041016E35A03E86008701F6
:1002E800403F4001E900413FEA0068086A06031DF3
:1002F8007F2967086906031982298329AC294101E6
:100308006E35C63E86008701403F4001E700413F09
:10031800E80041016F084001EA0041016E08400110
:10032800E9000A30E935EA0D890B9629670869045E
:100338004101EC00400168086A044101ED006C08C5
:100348008231D222803141016D088231D22280313E
:1003580041016E35C63E860087016E35A03E840099
:100368008501403F803F413F813F6E35C63E860054
:1003780087010030C03FC13F0130EE070030EF3D3C
:1003880000306F02133003196E02031CCC29CD29EB
:100398005C298331F6238031003A0319D429D52901
:1003A800CD2942011E147F308231D222803183311F
:1003B800F6238031003A0319E229E329DB294201B7
:1003C8001E10400118136D2880312B287A08463EEC
:1003D80086008701810142011D1DF329F429FF29A7
:1003E8007A08463E86008701811440015F088A002A
:1003F8005E080A00813142019D1C032A042A0F2A43
:100408007A08463E86008701011540015D088A008A
:100418005C080A0082317A08463E86008701010896
:100428000319172A182A1F2A40015B088A005A084C
:100438000A008231222A83316E2381318231FD22E2
:100448008131533A031D292A2A2A2D2A4001D6012F
:10045800D60A08004E0199126D30F2000230F300FE
:100468008331DE2382314E0119124B30F200033002
:10047800F3008331D8238231083042019F00D830FD
:100488009D0064309E0003309B009C010230F20006
:100498000430F3008331EA238231FA30F20003306A
:1004A800F3008331E4238231FE30F2000330F3009D
:1004B8008331F02382314001D701FB01D90140305B
:1004C800F4007408E400FA01F901D8014E01991604
:1004D80008007A08463E86008701810142011D1DF9
:1004E800762A772A822A7A08463E8600870181146E
:1004F80040015F088A005E080A00823142019D1CA3
:10050800862A872A922A7A08463E8600870101159C
:1005180040015D088A005C080A0082317A08463E7C
:1005280086008701010803199A2A9B2AA22A4001FA
:100538005B088A005A080A008231A52A83316E2393
:10054800823108004001960197019801FF3091001F
:10055800FF3092009F3093007F307E01CE00FF3045
:10056800C300FF30B800E501C401B901CF01BA01E9
:10057800C501D001FF30BB00FF30C600FF30D100FD
:10058800FF30BC00FF30C700FF30D200E801173051
:100598007D01CB0010307E01A5000800F30040016A
:1005A80064080319D82AD92AD32A4E01191ADD2A30
:1005B800DE2AE22A730842019A00FA2A19127308FD
:1005C800F2007B08203E8600013087007208810017
:1005D8000130F2007208FB0740307B02031CF52A49
:1005E800F62AF72AFB0101304001E4024E011916F0
:1005F8000800400158080319022B032BFD2A79082B
:10060800463E860087010108F0007008D700790887
:100618004E3E860087010108F0007008F1000130A5
:10062800F0007008F90708307902031C1C2B1D2BF9
:100638001E2BF9014E01991201304001D8024E01DA
:10064800991671080800F800780886008701403F6D
:100658004001E500413FE60077086602031D362B9E
:10066800760865020318392B3A2B4A2B003077029B
:10067800043003197602031C422B432B4A2B7808BB
:10068800860087017608C03F7708C13F08004030E0
:10069800400164020318512B522B6B2B5908203E42
:1006A800860001308700010842019A000130F000FD
:1006B80070084001D90740305902031C642B652B90
:1006C800662BD9010130F0007008E4076D2B4E014C
:1006D8001912080042011908F0007A084E3E8600F7
:1006E8008701700881000130F0007008FA070830AF
:1006F8007A02031C802B812B822BFA010130F00037
:1007080070084001D807080042018E018F0190014E
:100718009101920193018D0141019E019B019C0170
:10072800940195019601970112309A009901980158
:10073800843093000A309D0008008331CA23833136
:100748008231A62283318331C123833183318823C7
:10075800833182312E2283310800F500750841016A
:100768009E009317131313141318BB2BBC2BB82B11
:100778000D08F3000C08F2000800603051018D00EC
:100788008F01910101309300920108004F019601F9
:100798009701980199019A019B0108006400800162
:1007A8000131890BD32B003473084001E300720830
:1007B800E200080073084001E1007208E000080048
:1007C80073084001DD007208DC000800730840016E
:1007D800DF007208DE00080073084001DB007208C1
:1007E800DA00080042011E0C0139080042011D12FE
:0E07F8001D16080083316E23833108000800AF
:020000040001F9
:0A000E00EC3FFF3F9F3FFF3FFF3F25
:00000001FF
