:020000040000FA
:0400000080312B28F8
:100008007E1480310B1F09280A2829284E01191E41
:100018000E280F281A280F1E122813281A28410103
:100028005B088A005A080A0080312928991E1D2871
:100038001E2829288F1E21282228292841015908ED
:100048008A0058080A00803129287E10090080316A
:100058002D28F901FA01FB014001A601A701A80119
:10006800A901A03084000030850032308331CD23CF
:100078008031203084000130850022308331CD2347
:100088008031A03084000130850040308331CD2399
:1000980080317E1040018031512842308600023084
:1000A800870022304001A20000301E00A20B592810
:1000B80020308600023087002230A20000301E0067
:1000C800A20B632883319C238031DE30F20001309B
:1000D800F3008331D92380318B170B17003083311C
:1000E800AC2380317308F7007208F600443083317E
:1000F8001E23803101308331AC2380317308F7002F
:100108007208F600463083311E2380310430833173
:10011800AC2380317308F7007208F6004830833149
:100128001E23803105308331AC2380317308F700FA
:100138007208F6004A3083311E238031073083313C
:10014800AC2380317308F7007208F6004C30833115
:100158001E23803106308331AC2380317308F700C9
:100168007208F6004E3083311E23803110308331FF
:10017800AC2380317308F7007208F60050308331E1
:100188001E23803111308331AC2380317308F7008E
:100198007208F600523083311E23803112308331C9
:1001A800AC2380317308F7007208F60054308331AD
:1001B8001E23803113308331AC2380317308F7005C
:1001C8007208F600563083311E2380311430833193
:1001D800AC2380317308F7007208F6005830833179
:1001E8001E23803108308331AC2380317308F70037
:1001F8007208F6005A3083311E238031093083316A
:10020800AC2380317308F7007208F6005C30833144
:100218001E2380310A308331AC2380317308F70004
:100228007208F6005E3083311E2380310B30833133
:10023800AC2380317308F7007208F6006030833110
:100248001E2380310C308331AC2380317308F700D2
:100258007208F600623083311E2380310D308331FD
:10026800AC2380317308F7007208F60064308331DC
:100278001E23803140012608031943294429722886
:10028800A60118174401E601E7016635423E8600DB
:1002980002308700160001040319532954299D29A7
:1002A8006635423E860002308700403F4001A2008A
:1002B800413FA30044016635203E86000230870096
:1002C800403F4001A400413FA50023082506031D27
:1002D8006F29220824060319722973299D294401CC
:1002E8006635423E860002308700403F4001A2004A
:1002F800413FA300440167084001A5004401660886
:100308004001A4000A30A435A50D890B87292208CD
:1003180024044401E4004001230825044401E500C5
:1003280064088231C9228031440165088231C922BA
:10033800803144016635423E8600023087006635CA
:10034800203E840002308500403F803F413F813F8E
:100358006635423E8600023087000030C03FC13F0C
:100368000130E6070030E73D00306702113003191D
:100378006602031CC029C12949298331F123803130
:10038800003A0319C829C929C12942011E147F301E
:100398008231C92280318331F1238031003A031937
:1003A800D629D729CF2942011E10400118137228D7
:1003B80080312B287A08C23E8600870181014201DC
:1003C8001D1DE729E829F3297A08C23E860087011E
:1003D8008114410157088A0056080A0081314201F8
:1003E8009D1CF729F829032A7A08C23E860087014E
:1003F8000115410155088A0054080A0082317A081B
:10040800C23E86008701010803190B2A0C2A132A09
:10041800410153088A0052080A008231162A8331A2
:10042800692381318231F4228131623A031D1D2A08
:100438001E2A212A4001A601A60A08004E01991287
:100448006330F2000230F3008331D92382314E0148
:1004580019124430F2000330F3008331D323823180
:10046800083042019F00D8309D0064309E00033060
:100478009B009C01FD30F2000330F3008331E5233B
:100488008231F530F2000330F3008331DF2382310B
:10049800F930F2000330F3008331EB23823140015D
:1004A800A701FB01A9014030F40074084101DC00F8
:1004B800FA01F9014001A8014E01991608007A08CD
:1004C800C23E86008701810142011D1D6C2A6D2AEA
:1004D800782A7A08C23E86008701811441015708AC
:1004E8008A0056080A00823142019D1C7C2A7D2A16
:1004F800882A7A08C23E86008701011541015508FD
:100508008A0054080A0082317A08C23E86008701B0
:1005180001080319902A912A982A410153088A0050
:1005280052080A0082319B2A8331692382310800EC
:100538004001960197019801FF309100FF30920029
:100548009F3093007F307E01CE003F30C300FF30E4
:10055800B800E501C030C400B901CF01BA01C50136
:10056800D001FF30BB00FF30C600FF30D100FF30A4
:10057800BC00FF30C700FF30D200E80117307D0112
:10058800CB0010307E01A5000800F30041015C0893
:100598000319CF2AD02ACA2A4E01191AD42AD52AD1
:1005A800D92A730842019A00F12A19127308F20035
:1005B8007B08A03E86000130870072088100013068
:1005C800F2007208FB0740307B02031CEC2AED2A7C
:1005D800EE2AFB0101304101DC024E011916080028
:1005E800400128080319F92AFA2AF42A7908C23E90
:1005F800860087010108F0007008A7007908CA3E44
:10060800860087010108F0007008F1000130F00051
:100618007008F90708307902031C132B142B152BCB
:10062800F9014E01991201304001A8024E019916B4
:1006380071080800F8007808860002308700403FFB
:100648004001A000413FA10077082102031D2E2B85
:10065800760820020318312B322B432B0030770207
:10066800043003197602031C3A2B3B2B432B7808E2
:100678008600023087007608C03F7708C13F08002F
:10068800403041015C0203184A2B4B2B662B40017A
:100698002908A03E860001308700010842019A001F
:1006A8000130F00070084001A90740302902031CFE
:1006B8005E2B5F2B602BA9010130F000700841010F
:1006C800DC07682B4E011912080042011908F000D6
:1006D8007A08CA3E86008701700881000130F00060
:1006E8007008FA0708307A02031C7B2B7C2B7D2BC1
:1006F800FA010130F00070084001A8070800420123
:100708008E018F0190019101920193018D014101A8
:100718009E019B019C01940195019601970112305D
:100728009A0099019801843093000A309D000800CE
:100738008331C523833182319C2283318331BC23A9
:10074800833183318323833182312222833108002C
:10075800F500750841019E0093171313131413181D
:10076800B62BB72BB32B0D08F3000C08F2000800CA
:10077800603051018D008F01910101309300920189
:1007880008004F0196019701980199019A019B0170
:100798000800640080010131890BCE2B00347308F6
:1007A8004101DB007208DA00080073084101D90032
:1007B8007208D800080073084101D5007208D400F7
:1007C800080073084101D7007208D60008007308B2
:1007D8004101D3007208D200080042011E0C013901
:1007E800080042011D121D16080083316923833158
:0407F80008000800ED
:020000040001F9
:0A000E00EC3FFF3F9F3FFF3FFF3F25
:00000001FF
