:020000040000FA
:0400000080312B28F8
:100008007E1480310B1F09280A2829284E01191E41
:100018000E280F281A280F1E122813281A28400104
:100028005C088A005B080A0080312928991E1D286F
:100038001E2829288F1E21282228292840015A08ED
:100048008A0059080A00803129287E100900803169
:100058002D28F701F801F901FA0120308400003059
:100068008500263083313B2380317E10400180316A
:100078003D284001CD010030CE000030CF000030D7
:10008800D0000030CA000030CB000030CC00D101D5
:10009800D2018231FF228031A930F2000130F30011
:1000A8008331472380318B170B17833167238031C6
:1000B800962840013E0803196228632896288B1366
:1000C8004208C6000530C636890B67284608C700AF
:1000D8004708CD004308C6000630C636890B71288C
:1000E8004208C7000130C735FF3E031D7728473552
:1000F80046047F39C8004808CE004408C6000730C7
:10010800C636890B8428433546047F39C70047081B
:10011800CF0044087F39C6004608D000BE018B17BF
:10012800D101D20183311D238031003A03199D2862
:100138009E285D28ED284E30813103218031962894
:100148005108D10AC60024304602031CAC28AD2849
:10015800B728D1015208031DB228B328B628D20106
:10016800D20AB728D2015208031DBB28BC28C128CF
:100178004A3081310321803196284E308131032164
:100188008031962805305202031CCB28CC28D12870
:100198004E3081310321803196285108D10AC6009A
:1001A80006304602031CD928DA28DF28D10101309D
:1001B800C6004608D2075218E228E328E8284A3041
:1001C80081310321803196284E30813103218031DD
:1001D800962840014D08C600C7014708003A031990
:1001E800F62896284608003A03199F28013A031969
:1001F800A428033A0319C628962880312B28F6002C
:1002080040010E18082909290E2918149810F5011B
:10021800F50A1C298E181129122919299814181160
:100228000230F2007208F5001C2918151810F501A3
:1002380075087607F200720886008701013001050B
:10024800F30016087306FE397306960075087607DC
:10025800F20072088600870101360139F300F30DB8
:1002680016087306FD397306960075087607F200BE
:100278007208860087010108F3000230F336890B03
:10028800422973080139F400F40DF40D16087406B8
:10029800FB397406960075087607F2007208860026
:1002A80087010108F3000330F336890B58297308D6
:1002B8000139F400F40DF40DF40D16087406F7393D
:1002C8007406960075087607F200720886008701A2
:1002D8000108F3000430F336890B6F2973080139DC
:1002E800F400F40E16087406EF39740696007508C3
:1002F8007607F2007208860087010108F3000530CE
:10030800F336890B842973080139F400F40EF40DCF
:1003180016087406DF397406960075087607F20029
:100328007208860087010108F3000630F336890B4E
:100338009A2973080139F400F40EF40DF40D160827
:100348007406BF397406960008007808203E8600B7
:100358008701810142011D1DB229B329BE297808F0
:10036800203E860087018114400158088A005708FA
:100378000A00813142019D1CC229C329CE2978086F
:10038800203E860087010115400156088A0055085D
:100398000A0081317808203E860087010108031988
:1003A800D629D729DE29400154088A0053080A00B3
:1003B80081311B2A0130F1007108F80708307802F2
:1003C800031CE729E829E929F8010130F10071083F
:1003D8004001C10742011D1CF229F329062A190808
:1003E800031DF729F829FD299D114001BE01BF0110
:1003F8001B2A9D19002A012A1B2A9D154001BE01AE
:10040800BE0A1B2A1908F10040013F08423E860037
:100418008701710881000130F1007108BF070430BD
:100428003F02031C182A192A1B2ABF011B2A08008D
:100438004E0199125B30F2000230F30083314723FA
:1004480082314E011912C330F2000230F3008331B9
:1004580041238231083042019F00D8309D0064302A
:100468009E0003309B009C016A30F2000330F300C9
:100478008331532382315F30F2000330F30083313C
:100488004D2382316330F2000330F3008331592366
:1004980082314001C001FA01F9010830F400740802
:1004A800DD00F801F701C1014E019916080078082E
:1004B800203E86008701810142011D1D642A652AAC
:1004C800702A7808203E8600870181144001580868
:1004D8008A0057080A00823142019D1C742A752A35
:1004E800802A7808203E86008701011540015608B9
:1004F8008A0055080A0082317808203E8600870164
:1005080001080319882A892A902A400154088A0078
:1005180053080A008231932A8231E5228231080089
:100528004001960197010730980080309100FF3014
:1005380092009830930067307E01CE00C3017F306F
:10054800B800E501FF30C4008030B9001830CF0092
:10055800BA01C501D001FF30BB00FF30C600FF3033
:10056800D100FF30BC00FF30C700FF30D200E801E7
:1005780017307D01CB0010307E01A500080008303F
:1005880040015D020318C92ACA2AE22A7908303EC6
:1005980086008701010842019A000130F0007008C6
:1005A800F90708307902031CDA2ADB2ADC2AF90168
:1005B8000130F00070084001DD07E42A4E011912ED
:1005C800080042011908F0007808283E86008701D3
:1005D800700881000130F0007008F80708307802D0
:1005E800031CF72AF82AF92AF8010130F0007008EC
:1005F8004001C107080083313323823182319422BC
:10060800823183312A23823183310F23823182312F
:100618001C22823108000130450190008F019101B0
:1006280030308D008C014E019010F33045018E0062
:10063800080000304E0190180130F20072080319CA
:10064800262B272B282B90107208080060305101A8
:100658008D008F01910101309300920108004F0134
:1006680096019701980199019A019B01080064007D
:1006780080010131890B3C2B003473084001DC00F8
:100688007208DB00080073084001DA007208D9001C
:10069800080073084001D6007208D50008007308E6
:1006A8004001D8007208D700080073084001D40040
:1006B8007208D300080042011D121D16080082317D
:0E06C800E5228331080045018E170800080066
:020000040001F9
:0A000E00EC3FFF3F9F3FFF3FFF3F25
:00000001FF
