:020000040000FA
:0400000080312B28F8
:100008007E1480310B1F09280A2829284E01191E41
:100018000E280F281A280F1E122813281A28410103
:1000280059088A0058080A0080312928991E1D2875
:100038001E2829288F1E21282228292841015708EF
:100048008A0056080A00803129287E10090080316C
:100058002D282430840084308500C4308600003088
:1000680087000C30843141248031F901FA01FB0109
:10007800A03084000030850014308431472480315A
:10008800203084000130850040308431472480319D
:10009800A0308400013085004C3084314724803101
:1000A8007E104001803158282030860002308700B9
:1000B80026304001A20000301E00A20B6028263026
:1000C8008600003087002630A20000301E00A20BF8
:1000D8006A28C430860000308700B63084000030BB
:1000E80085000C30A20016001A00A20B7728843174
:1000F800042480314A30F2000230F3008431532462
:1001080080318B170B1740018D1E8B288C28942863
:100118004101BC01BD010130BA000030BB009B2881
:100128004101BA01BB010130BC000030BD004001F3
:100138000D1F9F28A028A8284101C001C101013036
:10014800BE000030BF00AF284101BE01BF01013031
:10015800C0000030C10040018D1FB328B428BC285E
:100168004101B801B9010130B6000030B700C32819
:100178004101B601B7010130B8000030B9000030C4
:100188008431142480317308F7007208F600223095
:1001980083318823803101308431142480317308FD
:1001A800F7007208F6002430833188238031043048
:1001B8008431142480317308F7007208F600263061
:1001C80083318823803105308431142480317308C9
:1001D800F7007208F6002830833188238031073011
:1001E8008431142480317308F7007208F6002A302D
:1001F8008331882380310630843114248031730898
:10020800F7007208F6002C308331882380311030D3
:100218008431142480317308F7007208F6002E30F8
:10022800833188238031113084311424803173085C
:10023800F7007208F600303083318823803112309D
:100248008431142480317308F7007208F6003230C4
:10025800833188238031133084311424803173082A
:10026800F7007208F6003430833188238031143067
:100278008431142480317308F7007208F600363090
:100288008331882380310830843114248031730805
:10029800F7007208F600383083318823803109303E
:1002A8008431142480317308F7007208F6003A305C
:1002B8008331882380310A308431142480317308D3
:1002C800F7007208F6003C308331882380310B3008
:1002D8008431142480317308F7007208F6003E3028
:1002E8008331882380310C308431142480317308A1
:1002F800F7007208F60040308331882380314001CE
:100308000D0E890C01390907043EB63E86008701A7
:10031800403FF600413FF700423083318823803167
:1003280040010D0E890C890C01390907083EB63EBB
:1003380086008701403FF600413FF7004430833193
:100348008823803140010D0D0D0D01390907B63E96
:1003580086008701403FF600413FF7002030833197
:1003680088238031410130080319BB29BC29C328DF
:10037800B001400118174101C201C3014235203EB6
:10038800860002308700403F4001A200413FA300A1
:1003980041014235263E86008701403F4001A400C6
:1003A800413FA50023082506031DDC292208240651
:1003B8000319DF29E0290A2A41014235203E860037
:1003C80002308700403F4001A200413FA3004101A5
:1003D80043084001A500410142084001A4000A3039
:1003E800A435A50D890BF429220824044101B40081
:1003F8004001230825044101B50034088331332323
:100408008031410135088331332380314101423540
:10041800203E8600023087004235263E8400850152
:10042800403F803F413F813F4235203E86000230B9
:1004380087000030C03FC13F0130C2070030C33DD4
:1004480000304302133003194202031C2C2A2D2AC0
:10045800C22984316B248031003A0319342A352AA1
:100468002D2A42011E147F30833133238031843199
:100478006B248031003A0319422A432A3B2A42015D
:100488001E1040011813C32880312B287A08A03E7B
:1004980086008701810142011D1D532A542A5F2AC3
:1004A8007A08A03E860087018114410155088A0018
:1004B80054080A00823142019D1C632A642A6F2A6B
:1004C8007A08A03E860087010115410153088A0079
:1004D80052080A0082317A08A03E86008701010886
:1004E8000319772A782A7F2A410151088A0050087F
:1004F8000A008231822A8331D123823183315E23FB
:100508008231543A031D892A8A2A8D2A4101B00171
:10051800B00A08004E019912CD30F2000230F30003
:100528008431532482314E011912AE30F200033067
:10053800F30084314D248231083042019F00D830C5
:100548009D0064309E0003309B009C017730F200D0
:100558000430F30084315F2482316F30F2000430BC
:10056800F3008431592482317330F2000430F300EF
:100578008431652482314101B101FB01B30140306E
:10058800F4007408DA00FA01F901B2014E01991673
:1005980008007A08A03E86008701810142011D1DDE
:1005A800D62AD72AE22A7A08A03E86008701811433
:1005B800410155088A0054080A00823142019D1CF5
:1005C800E62AE72AF22A7A08A03E86008701011562
:1005D800410153088A0052080A0082317A08A03E75
:1005E8008600870101080319FA2AFB2A022B410118
:1005F80051088A0050080A008331052B8331D12322
:10060800823108004001960197019801FF3091005E
:10061800FF3092009F3093007F307E01CE001F3064
:10062800C300FF30B800E501E030C400B901CF01D4
:10063800BA01C501D001FF30BB00FF30C600FF3052
:10064800D100FF30BC00FF30C700FF30D200E80106
:1006580017307D01CB0010307E01A5000800F300A3
:1006680041015A080319392B3A2B342B4E01191A18
:100678003E2B3F2B432B730842019A005B2B191228
:100688007308F2007B08203E86000130870072085C
:1006980081000130F2007208FB0740307B02031C26
:1006A800562B572B582BFB0101304101DA024E0122
:1006B80019160800410132080319632B642B5E2BBD
:1006C8007908A03E860087010108F0007008B10093
:1006D8007908A83E860087010108F0007008F1003B
:1006E8000130F0007008F90708307902031C7D2BEF
:1006F8007E2B7F2BF9014E01991201304101B20284
:100708004E01991671080800F80078088600023032
:100718008700403F4001A000413FA1007708210227
:10072800031D982B7608200203189B2B9C2BAD2BBE
:1007380000307702123003197602031CA42BA52B74
:10074800AD2B78088600023087007608C03F77080E
:10075800C13F0800403041015A020318B42BB52BA1
:10076800CE2B3308203E8600013087000108420165
:100778009A000130F00070084101B307403033029D
:10078800031CC72BC82BC92BB3010130F00070081C
:10079800DA07D02B4E011912080042011908F0009F
:1007A8007A08A83E86008701700881000130F000B1
:1007B8007008FA0708307A02031CE32BE42BE52BB8
:1007C800FA010130F00070084101B2070800420147
:1007D8008E018F0190019101920193018D014101D8
:1007E8009E019B019C01940195019601970112308D
:1007F8009A0099019801843093000A309D000800FE
:10080800843139248431833106238431843130247E
:1008180084318331EB23843182318E228431080084
:10082800F500750841019E0093171313131413184C
:100838001E2C1F2C1B2C0D08F3000C08F2000800BE
:10084800FF34033400340034FF34033400340034FC
:10085800FF34033400340034603051018D008F01BF
:10086800910101309300920108004F019601970110
:10087800980199019A019B010800FE0012001E00D0
:10088800FE0B422C0034640080010131890B482C96
:10089800003473084101D9007208D80008007308B1
:1008A8004101D7007208D600080073084101D3003F
:1008B8007208D200080073084101D5007208D400FC
:1008C800080073084101D1007208D00008004201F5
:1008D8001E0C0139080042011D121D160800833143
:0808E800D1238431080008004F
:020000040001F9
:0A000E00EC3FFF3F9F3FFF3FFF3F25
:00000001FF
